:04000000B5EF0AF05E
:08000800046ED8CF05F0E0CF33
:1000100006F00001E9CF0CF0EACF07F0E1CF08F0DD
:10002000E2CF09F0D9CF0AF0DACF0BF0F3CF12F01C
:10003000F4CF13F0FACF14F0F5CF15F0F6CF16F099
:10004000F7CF17F000C00EF001C00FF002C010F0A3
:1000500003C011F09DA230EF00F09EB295EF02F0C8
:100060000EC000F00FC001F010C002F011C003F08C
:100070000CC0E9FF07C0EAFF078E08C0E1FF09C016
:10008000E2FF0AC0D9FF0BC0DAFF12C0F3FF13C0B2
:10009000F4FF14C0FAFF15C0F5FF16C0F6FF17C035
:1000A000F7FF045006C0E0FF05C0D8FF10000D0A9E
:1000B00020636F6E74696E756F7573206D65617303
:1000C0007572652077726974652830783441293AF1
:1000D000202575000D0A20636F6E74696E756F754B
:1000E00073206D6561737572652077726974652818
:1000F00030783336293A202575000D0A20636F6E5B
:1001000074696E756F7573206D65617375726520A6
:1001100077726974652830783135293A2025750061
:100120000D0A2073746F70207772697465283078B7
:100130003441293A202575000D0A2073746F702010
:1001400077726974652830783346293A202575001E
:100150000D0A2073746F7020777269746528307887
:100160004639293A202575000D0A20726573657499
:100170002077726974652830783030293A202575E7
:1001800000000D0A207265736574207772697465CA
:100190002830783036293A20257500000D0A53653D
:1001A0006E736972696F6E207374617475733A202F
:1001B000257500000D0A53656E736972696F6E20B4
:1001C000737461747573313A202575000D0A536597
:1001D0006E736972696F6E20737461747573323AED
:1001E000202575000D0A53656E736972696F6E2064
:1001F000737461747573333A202575000D0A536565
:100200006E736972696F6E20737461747573343ABA
:10021000202575000D0A53656E736972696F6E2033
:10022000737461747573353A202575000D0A536532
:100230006E736972696F6E20494420444154415B7A
:10024000305D3A202530325800000D0A53656E7338
:100250006972696F6E20494420444154415B315DAD
:100260003A202530325800000D0A53656E736972CA
:10027000696F6E20494420444154415B325D3A200D
:100280002530325800000D0A53656E736972696F2C
:100290006E20494420444154415B335D3A2025306F
:1002A000325800000D0A53656E736972696F6E20D3
:1002B000494420444154415B345D3A202530325852
:1002C00000000D0A53656E736972696F6E204944B0
:1002D00020444154415B355D3A20253032580000BE
:1002E0000D0A53656E736972696F6E20494420442C
:1002F0004154415B365D3A202530325800000D0AEA
:1003000053656E736972696F6E207374617475736F
:100310003A20257500000D0A53656E736972696F86
:100320006E20737461747573313A202575000D0A5F
:1003300053656E736972696F6E207374617475733F
:10034000323A202575000D0A446966666572656E4D
:100350007420707265737375726520444154415BFB
:10036000305D3A202530325800000D0A4469666637
:100370006572656E74207072657373757265204462
:100380004154415B315D3A202530325800000D0A5E
:10039000446966666572656E742070726573737504
:1003A000726520444154415B325D3A202530325819
:1003B00000000D0A446966666572656E742070728D
:1003C00065737375726520444154415B335D3A2017
:1003D0002530325800000D0A446966666572656E04
:1003E0007420707265737375726520444154415B6B
:1003F000345D3A202530325800000D0A44696666A3
:100400006572656E742070726573737572652044D1
:100410004154415B355D3A202530325800000D0AC9
:10042000446966666572656E742070726573737573
:10043000726520444154415B365D3A202530325884
:1004400000000D0A446966666572656E74207072FC
:1004500065737375726520444154415B375D3A2082
:100460002530325800000D0A446966666572656E73
:100470007420707265737375726520444154415BDA
:10048000385D3A202530325800000D0A446966660E
:100490006572656E74207072657373757265204441
:1004A0004154415B395D3A202530325800000D0A35
:1004B000436865636B20313A2025303258000D0ABD
:1004C000436865636B20323A2025303258000D0AAC
:1004D000436865636B20333A2025303258000D0A9B
:1004E0005363616C6520666163746F722076616C22
:1004F00075653A20254C64000D0A54656D70656180
:10050000747572652076616C75653A2025332E31DD
:1005100066000D0A50726573737572652076616CA2
:1005200075653A2025332E316600192AD8B41A2A67
:100530009E9230EF00F00D0A0D0A434353204341D1
:100540004E204558414D504C450D0A000D0A52753C
:100550006E6E696E672E2E2E00000D0A5072657346
:10056000737572652076616C75653A2025332E317E
:1005700066000D0A5055542025553A2049443D2522
:100580004C55204C454E3D25552000005052493DCC
:100590002555204558543D2555205254523D25554A
:1005A0000D0A20202044415441203D2000000D0A26
:1005B0004641494C206F6E20505554440D0A0000AE
:1005C0000900F5520DE0F6CF41F0F7CF42F0F550BB
:1005D0009EA8FED7AD6E41C0F6FF42C0F7FFF0D730
:1005E0001200EA6A5E0EE96EEF500DE0060E016E33
:1005F000006A002EFED7012EFBD77B0E006E002E68
:10060000FED7EF2EF3D712004138700B006ED89052
:1006100000361F0E6F1400106F6E6ECF00F0003AA0
:100620000030070B415CF9E11200C00E70140409A0
:10063000706E3F0E7014706EF80E71140209716EB8
:10064000C70E71142809716E719C718EF80E7214A8
:100650000509726E729CC9EF03F052C059F051C087
:1006600058F0575252E058C0E9FF59C0EAFF53C052
:10067000EFFF5850D8B45906580658C0E9FF59C082
:10068000EAFF54C0EFFF5850D8B45906580658C076
:10069000E9FF59C0EAFF5550030BEF6E58C0E9FF60
:1006A00059C0EAFF55C000F0003600360036F80E9B
:1006B00000160050E00BEF10EF6E58C0E9FF59C074
:1006C000EAFFEF500809EF6E5850D8B459065806A3
:1006D00058C0E9FF59C0EAFF55C000F0003A0032A7
:1006E000070E00160050070BEF6E58C0E9FF59C007
:1006F000EAFF56C000F0003600360036F80E00164D
:100700000050F80BEF10EF6E3FD058C0E9FF59C012
:10071000EAFFEF6A5850D8B45906580658C0E9FFA6
:1007200059C0EAFFEF6A5850D8B45906580658C065
:10073000E9FF59C0EAFF53C000F0003A0036E00E6E
:1007400000160050E00BEF6E5850D8B4590658060A
:1007500058C0E9FF59C0EAFF53C000F00032003230
:1007600000321F0E001600501F0BEF6E58C0E9FF3D
:1007700059C0EAFF54C000F0003A0036E00E0016FF
:100780000050E00BEF10EF6E1200040E416E3CDFE4
:100790004CD7606A9F0E6014606E608460CF50FF1B
:1007A000739A7398739E739C0F0E526E1B0E516E4C
:1007B000566A556A546A536A010E576E4EDF0F0E21
:1007C000526E030E516E566A556A546A536A010E90
:1007D000576E43DF0F0E526E070E516E566A556A02
:1007E000546A536A010E576E38DF0F0E526E1F0E99
:1007F000516E566A556A546A536A010E576E2DDF60
:100800000F0E526E0B0E516E566A556A546A536A39
:10081000010E576E22DF0F0E526E516E566A556AE8
:10082000546A536A010E576E18DF0F0E526E130E84
:10083000516E566A556A546A536A010E576E0DDF3F
:100840000F0E526E170E516E566A556A546A536AED
:10085000010E576E02DF9350FB0B0809936E416A3D
:10086000D3DE00EF0BF0C69E9E965EC0C9FF020E5F
:10087000C6BE05D09EA6FED7000EC5BC010E016EF9
:1008800012000900F6CF5FF0F7CF60F0F5509EA898
:10089000FED7AD6E5FC0F6FF60C0F7FF5E2EF1D7EA
:1008A00012004750016A465C03E246C000F00CD0DB
:1008B000006A080E486E463600364750005CD8B0D5
:1008C000006E0136482EF7D71200015044C046F0A2
:1008D000640E476EE6DF00C044F00150300E07E1C1
:1008E00045A20DD045B60BD045B8200E03D0459695
:1008F00045984580012601509EA8FED7AD6E44C0A4
:1009000046F00A0E476ECDDF00C044F00150300EB5
:1009100006E145B609D045A007D045B8200E01260E
:1009200001509EA8FED7AD6E300E442644509EA8BE
:10093000FED7AD6E1200C580C5B0FED75E6A93DFEC
:1009400001C041F0680EF66E010EF76E160E5E6E77
:1009500098DF41C044F01B0E456EB7DF060E5E6E99
:1009600082DF01C042F0820EF66E010EF76E160EA7
:100970005E6E87DF42C044F01B0E456EA6DFC58465
:10098000C5B4FED7140E5E6E2CDE1200C580C5B055
:10099000FED74A0E5E6E67DF01C041F0FE0EF66EB6
:1009A000020EF76E140E5E6E6CDF41C044F01B0E3B
:1009B000456E8BDF360E5E6E56DF01C042F0160EBE
:1009C000F66E030EF76E150E5E6E5BDF42C044F0EE
:1009D0001B0E456E7ADF150E5E6E45DF01C043F0DB
:1009E0002E0EF66E030EF76E150E5E6E4ADF43C0D6
:1009F00044F01B0E456E69DFC584C5B4FED7435273
:100A000002E1010E016E1FEF0BF0C69CC586C5B654
:100A1000FED700B0C59A00A0C58AC588C5B8FED764
:100A2000C9CF01F012005FBE10D00F0E006E5E380D
:100A300000160A0E005C03E2300E002602D05F5062
:100A4000002600509EA8FED7AD6E0F0E5E160A0E51
:100A50005E5C02E2300E02D05F9E5F505E265E500A
:100A60009EA8FED7AD6E12006169626B6051625D37
:100A700019E262515E24E96E000E5F20EA6EEF50CB
:100A8000611B080E636F63530BE061AF05D0D89014
:100A90006135310A616F02D0D89061376307F3D7AF
:100AA000622BE4D761C001F012008E0E006E5FC0B1
:100AB00001F05EC002F0036A5FAE05D0011E021EA7
:100AC000022A01E1012A015209E102C001F0026A91
:100AD000080E005E015202E1006A0AD0D89001BE01
:100AE00004D0023601360006F9D75FBE01D0019E60
:100AF00012006251D8B4A5D06E6F6651D8B4A1D09F
:100B00006E5F05E37F0E6E27D8B09BD006D0810EB6
:100B10006E5FD8A096D0D8B494D06EC000F0016AB1
:100B2000026A036A6D6B63C06CF06C8F64C06BF01B
:100B300065C06AF0190E6E6F69516A5F0DE2010EB1
:100B40006B5F0AE26C5F08E26D5F06E26D2B6C2B57
:100B50006B2B69516A2728D068516B5F12E2010E36
:100B60006C5F0FE26D5F0DE26D2B6C2B68516B2794
:100B700069516A2719E36B2B17E16C2B15E16D2B7B
:100B800013D0675180096C5F0EE2010E6D5F0BE2BE
:100B90006D2B675180096C2768516B27E9E36C2B3B
:100BA000E7E16D2BE5D703806E2F01D00BD0D890F5
:100BB0006A376B376C376D37D8900336023601369B
:100BC0006F37BAD76FA106D0D89001320232033204
:100BD0006F3302D0000635E06FBF1ED0D8906A3761
:100BE0006B376C376D3769516A5F07E2010E6B5FD7
:100BF00004E26C5F02E26D5F1AE368516B5F05E22D
:100C0000010E6C5F02E26D5F12E3675180096C5F59
:100C100003E2010E6D5F0BE3032A09E1022A07E1FB
:100C2000012A05E1002A0DE001320232033263C0DD
:100C30006EF067516E1B6EAF02D0018E06D0019E22
:100C400004D0006A016A026A036A12008E0E006E06
:100C500063C001F062C002F0036A015209E102C000
:100C600001F0026A080E005E015202E1006A08D03B
:100C7000D89001BE04D0023601360006F9D7019E95
:100C8000A3EF09F0EACF66F0E9CF65F05FAE08D0D8
:100C9000658F65A9652B5E1E5F1E5E2AD8B45F2A2C
:100CA0005F38F009616F6127E20F626F320F646F86
:100CB0005F500F0B622762276427E90F636F63277A
:100CC00063275E380F0B6327642763376437641F1D
:100CD00064375E500F0B64276137070E606F0A0E92
:100CE00063076427FDE362076327FDE3610762276B
:100CF000FDE360076127FDE3EA6A600EE96E070E17
:100D00006515659DED52651507E165B9EE5265B94A
:100D100003D0200E006E20D0E926000EEA22E95012
:100D2000640803E1EA5201E1658DEF50006E08E1CD
:100D300065BD06D065B914D065B702D0200E0BD0C2
:100D400065AF06D02D0E006EED50659D659F04D0F9
:100D500065876599300E002600509EA8FED7AD6EBF
:100D6000EE5065ADDCD7CCEF09F06B51D8B471D043
:100D7000006E6F51D8B46DD0002604E3810E0026BA
:100D800068E204D07F0E005E64E363E06CC073F041
:100D90007051731B6C8F708F6E517203F4CF75F0AE
:100DA0006D517103F4CF03F0F3CF74F07203F3507D
:100DB0007527F4507423000E03226E517103F35013
:100DC0007527F4507423000E026A032202226C512C
:100DD0007203F3507427F4500322000E02226C5168
:100DE0007103F3500326F4500222000E016A01221F
:100DF0006E517003F3507427F4500322000E022248
:100E000001226D517003F3500326F4500222000EAC
:100E100001226C517003F3500226F4500122002A83
:100E200001BE05D074370336023601360006000EC7
:100E300074AF0AD0032A02220122015005E10250B8
:100E400003E1035001E1002A73BF018E73AF019EDD
:100E500004D0006A016A026A036AAAEF07F06B51C4
:100E6000B6086B6F036A6CC06FF06C8FD8906C33F0
:100E70006D336E3303320232013200326B2FF6D7FC
:100E80006FAF0BD0001E011E021E031E002AD8B435
:100E9000012AD8B4022AD8B4032ABDEF07F0D8B289
:100EA00003D0EA6A730EE96E006A016A026A036A95
:100EB000736B746B756B766B7251711170116F116E
:100EC0002CE0200E776FD8906B376C376D376E370C
:100ED00073377437753776377251765D08E1715123
:100EE000755D05E17051745D02E16F51735D0FE353
:100EF0006F51735F7051D8A0703D745F7151D8A06D
:100F0000713D755F7251D8A0723D765FD880003612
:100F1000013602360336772FD6D773C0EFFF74C081
:100F2000ECFF75C0ECFF76C0ECFF1200E950636F78
:100F30006251656F19E061C06EF060C06DF05FC016
:100F40006CF05EC06BF0726B716B200E706F820E76
:100F50006F6F0BD703C061F002C060F001C05FF09B
:100F600000C05EF0652FE7D761C06EF060C06DF025
:100F70005FC06CF05EC06BF072D703C061F002C05E
:100F800060F001C05FF000C05EF061AF0DD063079C
:100F9000638B5E1E5F1E601F611F5E2AD8B45F2ACE
:100FA000D8B4602BD8B4612B3B0E6A6F9A0E696F70
:100FB000CA0E686F676B0A0E656F6251D8B4632BF7
:100FC000D882EA6A5E0EE96E61C06EF060C06DF0B4
:100FD0005FC06CF05EC06BF06AC072F069C071F007
:100FE00068C070F067C06FF05ADF015000520FE127
:100FF0006229655D0CE063510CE00F0B655D01E05B
:101000003BE263BF39D063BD04D0200E30D0200E48
:10101000631763AB0DD0639B6251D8A46307005084
:10102000636F2D0E9EA8FED7AD6E6351006E636B8D
:101030006251655D0BE10050636F2E0E9EA8FED7D6
:10104000AD6E6351006E200E6317000E300E63AB61
:101050000ED0639B6251D8A463070050636F2D0EBE
:101060009EA8FED7AD6E6351006E636B300E0026F6
:1010700000509EA8FED7AD6ED8926AC06EF069C0CF
:101080006DF068C06CF067C06BF0726B716B706B69
:101090000A0E6F6F04DF03C06AF002C069F001C07E
:1010A00068F000C067F0652F8BD712000C0E5E6EE3
:1010B000F1EC02F0C580C5B0FED74B0E5E6E33EC8E
:1010C00004F0010E006EA1DC01C04BF0010E006EB9
:1010D0009CDC01C04CF0010E006E97DC01C04DF0AD
:1010E000010E006E92DC01C04EF0010E006E8DDC30
:1010F00001C04FF0010E006E88DC01C050F0010EFF
:10110000006E83DC01C051F0010E006E7EDC01C078
:1011100052F0010E006E79DC01C053F0C584C5B4F5
:10112000FED7010E5E6EF1EC02F0460EF66E030E77
:10113000F76E1E0E5E6E41EC04F04AC05EF0370E94
:101140005F6E71DC6A0EF66E030EF76E1E0E5E6E3B
:1011500041EC04F04BC05EF0370E5F6E64DC8E0E27
:10116000F66E030EF76E1E0E5E6E41EC04F04CC080
:101170005EF0370E5F6E57DCB20EF66E030EF76E42
:101180001E0E5E6E41EC04F04DC05EF0370E5F6ED9
:101190004ADCD60EF66E030EF76E1E0E5E6E41EC46
:1011A00004F04EC05EF0370E5F6E3DDCFA0EF66E58
:1011B000030EF76E1E0E5E6E41EC04F04FC05EF043
:1011C000370E5F6E30DC1E0EF66E040EF76E1E0ECE
:1011D0005E6E41EC04F050C05EF0370E5F6E23DCB3
:1011E000420EF66E040EF76E1E0E5E6E41EC04F0BB
:1011F00051C05EF0370E5F6E16DC660EF66E040EA2
:10120000F76E1E0E5E6E41EC04F052C05EF0370EBB
:101210005F6E09DC8A0EF66E040EF76E1E0E5E6EB1
:1012200041EC04F053C05EF0370E5F6E13EC05F036
:101230005F6A4B0E5E6E020E606F16DC01C047F0F7
:101240005F6A4E0E5E6E020E606F0EDC01C048F0EB
:101250005F6A510E5E6E020E606F06DC01C049F0DF
:10126000AE0EF66E040EF76E0B0E5E6E41EC04F0E1
:1012700047C05EF0370E5F6E13EC05F0BE0EF66EE3
:10128000040EF76E0B0E5E6E41EC04F048C05EF08B
:10129000370E5F6E13EC05F0CE0EF66E040EF76E91
:1012A0000B0E5E6E41EC04F049C05EF0370E5F6ECF
:1012B00013EC05F04AC041F04BC042F04DC043F082
:1012C0004EC044F051C045F052C046F051C05DF0F0
:1012D00052C05CF044C05FF043C05EF055EC05F0D6
:1012E00003C061F002C060F001C05FF000C05EF0BA
:1012F00003C065F002C064F001C063F000C062F09A
:10130000696B686B480E676F860E666F79EC05F047
:1013100003C05BF002C05AF001C059F000C058F0A1
:1013200042C05FF041C05EF055EC05F003C061F0D3
:1013300002C060F001C05FF000C05EF05DC063F00D
:101340005CC062F083D461C065F060C064F05FC0CF
:1013500063F05EC062F003C069F002C068F001C0D3
:1013600067F000C066F079EC05F003C057F002C0EA
:1013700056F001C055F000C054F0DE0EF66E040EBB
:10138000F76E160E5E6E41EC04F0100EE96E5DC055
:101390005FF05CC05EF076D4F80EF66E040EF76E69
:1013A000140E5E6E41EC04F0020EE96E5BC061F05B
:1013B0005AC060F059C05FF058C05EF0010E626F15
:1013C000B5DD120EF66E050EF76E120E5E6E41EC76
:1013D00004F0020EE96E57C061F056C060F055C0CF
:1013E0005FF054C05EF0010E626FA0DD54C000F0EB
:1013F00055C001F056C002F057C003F023EF0BF0C8
:101400000F0E4F6E660E4E6E0F0140B706D0F10EF6
:101410006F1408096F6E506A15D030B707D0F10EFF
:101420006F1406096F6E010E506E0CD020B707D0F6
:10143000F10E6F1404096F6E020E506E03D0000E91
:10144000016E3CD04A50030B006EFC0E601400107D
:10145000606E0F0E526E640E516E46C056F045C05F
:1014600055F044C054F043C053F04BC057F0000156
:101470002DEC03F049C065FF659C4CB0658C4D6A4E
:1014800049504D5C14E247C0E9FF48C0EAFFEFCF86
:1014900053F04FC0EAFF4EC0E9FF53C0EFFF4E2AA2
:1014A000D8B44F2A472AD8B4482A4D2AE9D76086AB
:1014B000F10E6F146F6E010E016E0F01000180EFCF
:1014C0000BF0E950456E3B0E4C6E9A0E4B6ECA0EF9
:1014D0004A6E496A0A0E476ED882EA6A410EE96E80
:1014E00044C06EF043C06DF042C06CF041C06BF080
:1014F0004CC072F04BC071F04AC070F049C06FF040
:10150000CEDC015000520FE14750010A0CE045507B
:101510000BE00F0B475C01E00DE245BE0BD045BC74
:1015200003D0200E02D0456A300E002600509EA83F
:10153000FED7AD6ED8924CC06EF04BC06DF04AC075
:101540006CF049C06BF0726B716B706B0A0E6F6F51
:10155000A6DC03C04CF002C04BF001C04AF000C052
:1015600049F0472EB9D7A6EF0BF0F86AD09E078E48
:1015700094869488090EC86E280EC66EC79EC79CB6
:10158000B886810EAF6E000EB06EA60EAC6E900ED9
:10159000AB6EC150C00B0F09C16E346A336A326A38
:1015A000150E316E35903582080E366E030E376E8D
:1015B000386A3850070813E3036A3850290FE96E78
:1015C000000E0320EA6E330EEF6E036A3850200FD0
:1015D000E96E000E0320EA6EEF6A382AEAD7360E6B
:1015E000F66E050EF76EE0EC02F0780E0509CA6E95
:1015F0004F0ECB6EC80E5E6EF1EC02F0C5EF03F03D
:101600009D82C00EF2124C0EF66E050EF76EE0ECE7
:1016100002F00A0E5E6EF1EC02F09BEC04F0140E88
:101620005E6EF1EC02F09BEC04F0320E5E6EF1ECBB
:1016300002F0320E5E6EF1EC02F0C6EF04F00152E1
:10164000D8B40ED133D503C040F002C03FF001C082
:101650003EF000C03DF040C03CF03FC03BF03EC01B
:101660003AF03DC039F039C029F03AC02AF03BC009
:101670002BF03CC02CF05A0EF66E050EF76E120ED3
:101680005E6E41EC04F0020EE96E40C061F03FC0B6
:1016900060F03EC05FF03DC05EF0010E626F46DC60
:1016A0000F0140A704D030A702D020B7CCD01A50E9
:1016B0000608D8B0C8D0FF0A04E11950D008D8B045
:1016C000C2D01A6A196A000E35B2010E416E000EC0
:1016D00035B0010E426E34C046F033C045F032C022
:1016E00044F031C043F0486A290E476E36C049F0D5
:1016F00037C04AF041C04BF042C04CF0000180D6E8
:1017000001C038F0383C01D097D0720EF66E050E4D
:10171000F76E060E5E6E41EC04F038C044F01B0E0E
:10172000456E65EC04F07A0EF66E050EF76E050E4A
:101730005E6E41EC04F0410EE96E34C044F033C0FB
:1017400043F032C042F031C041F0BBD6820EF66E9B
:10175000050EF76E050E5E6E41EC04F036C044F0E7
:101760001B0E456E65EC04F0200E9EA8FED7AD6EF4
:10177000000E35B2010E416E000E35B0010E426E04
:101780008C0EF66E050EF76E040E5E6E41EC04F0E4
:1017900037C044F01B0E456E65EC04F0920EF66EF9
:1017A000050EF76E050E5E6E41EC04F041C044F08C
:1017B0001B0E456E65EC04F0990EF66E050EF76E85
:1017C000050E5E6E41EC04F042C044F01B0E456E07
:1017D00065EC04F0A00EF66E050EF76E0C0E5E6E54
:1017E00041EC04F0386A3650385C1DE2036A385028
:1017F000290FE96E000E0320EA6EEFCF41F00D0EC7
:101800009EA8FED7AD6E0A0E9EA8FED7AD6E41C053
:101810005EF0370E5F6E13EC05F0200E9EA8FED72B
:10182000AD6E382AE0D70D0E9EA8FED7AD6E0A0E1B
:101830009EA8FED7AD6E06D0AE0EF66E050EF76E04
:10184000E0EC02F00F01020E416EFA0E5E6E000136
:10185000F1EC02F0412E01D002D00F01F6D7EDD607
:10186000020E416EFA0E5E6EF1EC02F0412EFAD7D6
:04187000DAD60300C1
:020000040030CA
:0E00000000C21E1E008691000FC00FE00F40D0
:00000001FF
;PIC18F2480
;CRC=6F64  CREATED="25-Thg11-17 22:26"
